:0A02760001180005295253323332FB
:060237007B007A0079292A
:10023D00120170F537900001120189F53890000216
:10024D00120189F539900003120189F53A900004E5
:0C025D00120189F53B75220185379922BA
:10000300D3EF9400EE9400400DE4FD0DBD1BFCEF17
:060013001F70ED1E80EAE3
:0100190022C4
:0C026900150A150A150A150A150A150ACF
:010275002266
:1001B600E4FF75210220A007AE210521EE70F6129C
:1001C6000269120269120269E4F52630A003752657
:1001D6000175210230A007AE210521EE70F6E5215A
:1001E6006401600EE53125E0F531E52642310FBFA9
:0201F60008C03F
:0101F80022E4
:1000B200C2A07FB47E00120003D2A0120269120213
:1000C20069120269120269D2A020A056752102208B
:1000D200A007AF210521EF70F675210230A007AF0E
:1000E200210521EF70F61201B685312E1201B68577
:1000F200312F1201B685311B1201B685311C120156
:10010200B6853125D2A0E51B251C252E252FF526E7
:10011200B5250F852E27852F28851B19851C1A8545
:0301220025232270
:1001F900758920758DFD758BFDD28E759850D2ACA1
:10020900D2AFC299C2981202377F017E0012000351
:100219001200B285272985282A85192B851A2C854C
:0E022900232D1202377F207E4E12000380E24A
:03002300020125B2
:07012500C0E0C0D075D0104E
:10012C00309912C299E5226405600A74372522F8C9
:10013C00E6F5990522309827AF9974322518F8A660
:10014C00170518C298E518B40515751800853229DD
:0F015C0085332A85342B85352C85362D7580000B
:05016B00D0D0D0E0320D
:03000000020026D5
:0C002600787FE4F6D8FD75813B02006D88
:10017000BB010689828A83E0225002E722BBFE028D
:09018000E32289828A83E49322C0
:10018900BB010CE58229F582E5833AF583E022502B
:1001990006E92582F8E622BBFE06E92582F8E22275
:0D01A900E58229F582E5833AF583E493228F
:100032000201F9E493A3F8E493A34003F68001F2EA
:1000420008DFF48029E493A3F85407240CC8C333CF
:10005200C4540F4420C8834004F456800146F6DF9E
:10006200E4800B0102040810204080900276E47EB6
:10007200019360BCA3FF543F30E509541FFEE49393
:10008200A360010ECF54C025E060A840B8E493A35A
:10009200FAE493A3F8E493A3C8C582C8CAC583CA85
:1000A200F0A3C8C582C8CAC583CADFE9DEE780BE3D
:01028000007D
:00000001FF
